{
  "_format": "hh-sol-artifact-1",
  "contractName": "SentinelNFT",
  "sourceName": "contracts/SentinelNFT.sol",
  "abi": [
    {
      "inputs": [
        {
          "internalType": "string",
          "name": "baseTokenURI",
          "type": "string"
        }
      ],
      "stateMutability": "nonpayable",
      "type": "constructor"
    },
    {
      "inputs": [
        {
          "internalType": "address",
          "name": "sender",
          "type": "address"
        },
        {
          "internalType": "uint256",
          "name": "tokenId",
          "type": "uint256"
        },
        {
          "internalType": "address",
          "name": "owner",
          "type": "address"
        }
      ],
      "name": "ERC721IncorrectOwner",
      "type": "error"
    },
    {
      "inputs": [
        {
          "internalType": "address",
          "name": "operator",
          "type": "address"
        },
        {
          "internalType": "uint256",
          "name": "tokenId",
          "type": "uint256"
        }
      ],
      "name": "ERC721InsufficientApproval",
      "type": "error"
    },
    {
      "inputs": [
        {
          "internalType": "address",
          "name": "approver",
          "type": "address"
        }
      ],
      "name": "ERC721InvalidApprover",
      "type": "error"
    },
    {
      "inputs": [
        {
          "internalType": "address",
          "name": "operator",
          "type": "address"
        }
      ],
      "name": "ERC721InvalidOperator",
      "type": "error"
    },
    {
      "inputs": [
        {
          "internalType": "address",
          "name": "owner",
          "type": "address"
        }
      ],
      "name": "ERC721InvalidOwner",
      "type": "error"
    },
    {
      "inputs": [
        {
          "internalType": "address",
          "name": "receiver",
          "type": "address"
        }
      ],
      "name": "ERC721InvalidReceiver",
      "type": "error"
    },
    {
      "inputs": [
        {
          "internalType": "address",
          "name": "sender",
          "type": "address"
        }
      ],
      "name": "ERC721InvalidSender",
      "type": "error"
    },
    {
      "inputs": [
        {
          "internalType": "uint256",
          "name": "tokenId",
          "type": "uint256"
        }
      ],
      "name": "ERC721NonexistentToken",
      "type": "error"
    },
    {
      "inputs": [
        {
          "internalType": "address",
          "name": "owner",
          "type": "address"
        }
      ],
      "name": "OwnableInvalidOwner",
      "type": "error"
    },
    {
      "inputs": [
        {
          "internalType": "address",
          "name": "account",
          "type": "address"
        }
      ],
      "name": "OwnableUnauthorizedAccount",
      "type": "error"
    },
    {
      "anonymous": false,
      "inputs": [
        {
          "indexed": true,
          "internalType": "address",
          "name": "owner",
          "type": "address"
        },
        {
          "indexed": true,
          "internalType": "address",
          "name": "approved",
          "type": "address"
        },
        {
          "indexed": true,
          "internalType": "uint256",
          "name": "tokenId",
          "type": "uint256"
        }
      ],
      "name": "Approval",
      "type": "event"
    },
    {
      "anonymous": false,
      "inputs": [
        {
          "indexed": true,
          "internalType": "address",
          "name": "owner",
          "type": "address"
        },
        {
          "indexed": true,
          "internalType": "address",
          "name": "operator",
          "type": "address"
        },
        {
          "indexed": false,
          "internalType": "bool",
          "name": "approved",
          "type": "bool"
        }
      ],
      "name": "ApprovalForAll",
      "type": "event"
    },
    {
      "anonymous": false,
      "inputs": [
        {
          "indexed": false,
          "internalType": "uint256",
          "name": "_fromTokenId",
          "type": "uint256"
        },
        {
          "indexed": false,
          "internalType": "uint256",
          "name": "_toTokenId",
          "type": "uint256"
        }
      ],
      "name": "BatchMetadataUpdate",
      "type": "event"
    },
    {
      "anonymous": false,
      "inputs": [
        {
          "indexed": false,
          "internalType": "uint256",
          "name": "_tokenId",
          "type": "uint256"
        }
      ],
      "name": "MetadataUpdate",
      "type": "event"
    },
    {
      "anonymous": false,
      "inputs": [
        {
          "indexed": true,
          "internalType": "address",
          "name": "previousOwner",
          "type": "address"
        },
        {
          "indexed": true,
          "internalType": "address",
          "name": "newOwner",
          "type": "address"
        }
      ],
      "name": "OwnershipTransferred",
      "type": "event"
    },
    {
      "anonymous": false,
      "inputs": [
        {
          "indexed": true,
          "internalType": "address",
          "name": "from",
          "type": "address"
        },
        {
          "indexed": true,
          "internalType": "address",
          "name": "to",
          "type": "address"
        },
        {
          "indexed": true,
          "internalType": "uint256",
          "name": "tokenId",
          "type": "uint256"
        }
      ],
      "name": "Transfer",
      "type": "event"
    },
    {
      "inputs": [
        {
          "internalType": "address",
          "name": "to",
          "type": "address"
        },
        {
          "internalType": "uint256",
          "name": "tokenId",
          "type": "uint256"
        }
      ],
      "name": "approve",
      "outputs": [],
      "stateMutability": "nonpayable",
      "type": "function"
    },
    {
      "inputs": [
        {
          "internalType": "address",
          "name": "owner",
          "type": "address"
        }
      ],
      "name": "balanceOf",
      "outputs": [
        {
          "internalType": "uint256",
          "name": "",
          "type": "uint256"
        }
      ],
      "stateMutability": "view",
      "type": "function"
    },
    {
      "inputs": [
        {
          "internalType": "uint256",
          "name": "tokenId",
          "type": "uint256"
        }
      ],
      "name": "getApproved",
      "outputs": [
        {
          "internalType": "address",
          "name": "",
          "type": "address"
        }
      ],
      "stateMutability": "view",
      "type": "function"
    },
    {
      "inputs": [
        {
          "internalType": "address",
          "name": "owner",
          "type": "address"
        },
        {
          "internalType": "address",
          "name": "operator",
          "type": "address"
        }
      ],
      "name": "isApprovedForAll",
      "outputs": [
        {
          "internalType": "bool",
          "name": "",
          "type": "bool"
        }
      ],
      "stateMutability": "view",
      "type": "function"
    },
    {
      "inputs": [
        {
          "internalType": "address",
          "name": "receiver",
          "type": "address"
        }
      ],
      "name": "mintTo",
      "outputs": [
        {
          "internalType": "uint256",
          "name": "",
          "type": "uint256"
        }
      ],
      "stateMutability": "nonpayable",
      "type": "function"
    },
    {
      "inputs": [],
      "name": "name",
      "outputs": [
        {
          "internalType": "string",
          "name": "",
          "type": "string"
        }
      ],
      "stateMutability": "view",
      "type": "function"
    },
    {
      "inputs": [],
      "name": "owner",
      "outputs": [
        {
          "internalType": "address",
          "name": "",
          "type": "address"
        }
      ],
      "stateMutability": "view",
      "type": "function"
    },
    {
      "inputs": [
        {
          "internalType": "uint256",
          "name": "tokenId",
          "type": "uint256"
        }
      ],
      "name": "ownerOf",
      "outputs": [
        {
          "internalType": "address",
          "name": "",
          "type": "address"
        }
      ],
      "stateMutability": "view",
      "type": "function"
    },
    {
      "inputs": [],
      "name": "renounceOwnership",
      "outputs": [],
      "stateMutability": "nonpayable",
      "type": "function"
    },
    {
      "inputs": [
        {
          "internalType": "address",
          "name": "from",
          "type": "address"
        },
        {
          "internalType": "address",
          "name": "to",
          "type": "address"
        },
        {
          "internalType": "uint256",
          "name": "tokenId",
          "type": "uint256"
        }
      ],
      "name": "safeTransferFrom",
      "outputs": [],
      "stateMutability": "nonpayable",
      "type": "function"
    },
    {
      "inputs": [
        {
          "internalType": "address",
          "name": "from",
          "type": "address"
        },
        {
          "internalType": "address",
          "name": "to",
          "type": "address"
        },
        {
          "internalType": "uint256",
          "name": "tokenId",
          "type": "uint256"
        },
        {
          "internalType": "bytes",
          "name": "data",
          "type": "bytes"
        }
      ],
      "name": "safeTransferFrom",
      "outputs": [],
      "stateMutability": "nonpayable",
      "type": "function"
    },
    {
      "inputs": [
        {
          "internalType": "address",
          "name": "operator",
          "type": "address"
        },
        {
          "internalType": "bool",
          "name": "approved",
          "type": "bool"
        }
      ],
      "name": "setApprovalForAll",
      "outputs": [],
      "stateMutability": "nonpayable",
      "type": "function"
    },
    {
      "inputs": [
        {
          "internalType": "string",
          "name": "baseTokenURI",
          "type": "string"
        }
      ],
      "name": "setBaseURI",
      "outputs": [],
      "stateMutability": "nonpayable",
      "type": "function"
    },
    {
      "inputs": [
        {
          "internalType": "bytes4",
          "name": "interfaceId",
          "type": "bytes4"
        }
      ],
      "name": "supportsInterface",
      "outputs": [
        {
          "internalType": "bool",
          "name": "",
          "type": "bool"
        }
      ],
      "stateMutability": "view",
      "type": "function"
    },
    {
      "inputs": [],
      "name": "symbol",
      "outputs": [
        {
          "internalType": "string",
          "name": "",
          "type": "string"
        }
      ],
      "stateMutability": "view",
      "type": "function"
    },
    {
      "inputs": [
        {
          "internalType": "uint256",
          "name": "tokenId",
          "type": "uint256"
        }
      ],
      "name": "tokenURI",
      "outputs": [
        {
          "internalType": "string",
          "name": "",
          "type": "string"
        }
      ],
      "stateMutability": "view",
      "type": "function"
    },
    {
      "inputs": [
        {
          "internalType": "address",
          "name": "from",
          "type": "address"
        },
        {
          "internalType": "address",
          "name": "to",
          "type": "address"
        },
        {
          "internalType": "uint256",
          "name": "tokenId",
          "type": "uint256"
        }
      ],
      "name": "transferFrom",
      "outputs": [],
      "stateMutability": "nonpayable",
      "type": "function"
    },
    {
      "inputs": [
        {
          "internalType": "address",
          "name": "newOwner",
          "type": "address"
        }
      ],
      "name": "transferOwnership",
      "outputs": [],
      "stateMutability": "nonpayable",
      "type": "function"
    }
  ],
  "bytecode": "0x608060405234801561001057600080fd5b506040516119f33803806119f383398101604081905261002f91610140565b336040518060400160405280600881526020016714d95b9d1a5b995b60c21b8152506040518060400160405280600481526020016314d3951360e21b815250816000908161007d9190610295565b50600161008a8282610295565b5050506001600160a01b0381166100bb57604051631e4fbdf760e01b81526000600482015260240160405180910390fd5b6100c4816100d8565b5060096100d18282610295565b5050610353565b600780546001600160a01b038381166001600160a01b0319831681179093556040519116919082907f8be0079c531659141344cd1fd0a4f28419497f9722a3daafe3b4186f6b6457e090600090a35050565b634e487b7160e01b600052604160045260246000fd5b60006020828403121561015257600080fd5b81516001600160401b0381111561016857600080fd5b8201601f8101841361017957600080fd5b80516001600160401b038111156101925761019261012a565b604051601f8201601f19908116603f011681016001600160401b03811182821017156101c0576101c061012a565b6040528181528282016020018610156101d857600080fd5b60005b828110156101f7576020818501810151838301820152016101db565b50600091810160200191909152949350505050565b600181811c9082168061022057607f821691505b60208210810361024057634e487b7160e01b600052602260045260246000fd5b50919050565b601f82111561029057806000526020600020601f840160051c8101602085101561026d5750805b601f840160051c820191505b8181101561028d5760008155600101610279565b50505b505050565b81516001600160401b038111156102ae576102ae61012a565b6102c2816102bc845461020c565b84610246565b6020601f8211600181146102f657600083156102de5750848201515b600019600385901b1c1916600184901b17845561028d565b600084815260208120601f198516915b828110156103265787850151825560209485019460019092019101610306565b50848210156103445786840151600019600387901b60f8161c191681555b50505050600190811b01905550565b611691806103626000396000f3fe608060405234801561001057600080fd5b50600436106101365760003560e01c8063715018a6116100b2578063a22cb46511610081578063c87b56dd11610066578063c87b56dd1461027f578063e985e9c514610292578063f2fde38b146102ce57600080fd5b8063a22cb46514610259578063b88d4fde1461026c57600080fd5b8063715018a614610225578063755edd171461022d5780638da5cb5b1461024057806395d89b411461025157600080fd5b806323b872dd1161010957806355f804b3116100ee57806355f804b3146101de5780636352211e146101f157806370a082311461020457600080fd5b806323b872dd146101b857806342842e0e146101cb57600080fd5b806301ffc9a71461013b57806306fdde0314610163578063081812fc14610178578063095ea7b3146101a3575b600080fd5b61014e61014936600461116c565b6102e1565b60405190151581526020015b60405180910390f35b61016b6102f2565b60405161015a91906111d9565b61018b6101863660046111ec565b610384565b6040516001600160a01b03909116815260200161015a565b6101b66101b1366004611221565b6103ad565b005b6101b66101c636600461124b565b6103bc565b6101b66101d936600461124b565b610465565b6101b66101ec366004611318565b610485565b61018b6101ff3660046111ec565b610499565b610217610212366004611361565b6104a4565b60405190815260200161015a565b6101b6610505565b61021761023b366004611361565b610519565b6007546001600160a01b031661018b565b61016b6105d1565b6101b661026736600461137c565b6105e0565b6101b661027a3660046113b8565b6105eb565b61016b61028d3660046111ec565b610602565b61014e6102a0366004611434565b6001600160a01b03918216600090815260056020908152604080832093909416825291909152205460ff1690565b6101b66102dc366004611361565b61060d565b60006102ec82610664565b92915050565b60606000805461030190611467565b80601f016020809104026020016040519081016040528092919081815260200182805461032d90611467565b801561037a5780601f1061034f5761010080835404028352916020019161037a565b820191906000526020600020905b81548152906001019060200180831161035d57829003601f168201915b5050505050905090565b600061038f826106a2565b506000828152600460205260409020546001600160a01b03166102ec565b6103b88282336106db565b5050565b6001600160a01b0382166103eb57604051633250574960e11b8152600060048201526024015b60405180910390fd5b60006103f88383336106e8565b9050836001600160a01b0316816001600160a01b03161461045f576040517f64283d7b0000000000000000000000000000000000000000000000000000000081526001600160a01b03808616600483015260248201849052821660448201526064016103e2565b50505050565b610480838383604051806020016040528060008152506105eb565b505050565b61048d6107ee565b60096103b882826114e8565b60006102ec826106a2565b60006001600160a01b0382166104e9576040517f89c62b64000000000000000000000000000000000000000000000000000000008152600060048201526024016103e2565b506001600160a01b031660009081526003602052604090205490565b61050d6107ee565b6105176000610834565b565b600880546000918291908261052d836115a7565b91905055905061053d8382610893565b6102ec816009805461054e90611467565b80601f016020809104026020016040519081016040528092919081815260200182805461057a90611467565b80156105c75780601f1061059c576101008083540402835291602001916105c7565b820191906000526020600020905b8154815290600101906020018083116105aa57829003601f168201915b50505050506108ad565b60606001805461030190611467565b6103b83383836108fd565b6105f68484846103bc565b61045f848484846109b5565b60606102ec82610ade565b6106156107ee565b6001600160a01b038116610658576040517f1e4fbdf7000000000000000000000000000000000000000000000000000000008152600060048201526024016103e2565b61066181610834565b50565b60006001600160e01b031982167f490649060000000000000000000000000000000000000000000000000000000014806102ec57506102ec82610be2565b6000818152600260205260408120546001600160a01b0316806102ec57604051637e27328960e01b8152600481018490526024016103e2565b6104808383836001610c7d565b6000828152600260205260408120546001600160a01b039081169083161561071557610715818486610dc8565b6001600160a01b0381161561075357610732600085600080610c7d565b6001600160a01b038116600090815260036020526040902080546000190190555b6001600160a01b03851615610782576001600160a01b0385166000908152600360205260409020805460010190555b600084815260026020526040808220805473ffffffffffffffffffffffffffffffffffffffff19166001600160a01b0389811691821790925591518793918516917fddf252ad1be2c89b69c2b068fc378daa952ba7f163c4a11628f55a4df523b3ef91a4949350505050565b6007546001600160a01b03163314610517576040517f118cdaa70000000000000000000000000000000000000000000000000000000081523360048201526024016103e2565b600780546001600160a01b0383811673ffffffffffffffffffffffffffffffffffffffff19831681179093556040519116919082907f8be0079c531659141344cd1fd0a4f28419497f9722a3daafe3b4186f6b6457e090600090a35050565b6103b8828260405180602001604052806000815250610e45565b60008281526006602052604090206108c582826114e8565b506040518281527ff8e1a15aba9398e019f0b49df1a4fde98ee17ae345cb5f6b5e2c27f5033e8ce79060200160405180910390a15050565b6001600160a01b038216610948576040517f5b08ba180000000000000000000000000000000000000000000000000000000081526001600160a01b03831660048201526024016103e2565b6001600160a01b03838116600081815260056020908152604080832094871680845294825291829020805460ff191686151590811790915591519182527f17307eab39ab6107e8899845ad3d59bd9653f200f220920489ca2b5937696c31910160405180910390a3505050565b6001600160a01b0383163b1561045f57604051630a85bd0160e11b81526001600160a01b0384169063150b7a02906109f79033908890879087906004016115ce565b6020604051808303816000875af1925050508015610a32575060408051601f3d908101601f19168201909252610a2f9181019061160f565b60015b610a9b573d808015610a60576040519150601f19603f3d011682016040523d82523d6000602084013e610a65565b606091505b508051600003610a9357604051633250574960e11b81526001600160a01b03851660048201526024016103e2565b805181602001fd5b6001600160e01b03198116630a85bd0160e11b14610ad757604051633250574960e11b81526001600160a01b03851660048201526024016103e2565b5050505050565b6060610ae9826106a2565b5060008281526006602052604081208054610b0390611467565b80601f0160208091040260200160405190810160405280929190818152602001828054610b2f90611467565b8015610b7c5780601f10610b5157610100808354040283529160200191610b7c565b820191906000526020600020905b815481529060010190602001808311610b5f57829003601f168201915b505050505090506000610b8d610e5c565b90508051600003610b9f575092915050565b815115610bd1578082604051602001610bb992919061162c565b60405160208183030381529060405292505050919050565b610bda84610e6b565b949350505050565b60006001600160e01b031982167f80ac58cd000000000000000000000000000000000000000000000000000000001480610c4557506001600160e01b031982167f5b5e139f00000000000000000000000000000000000000000000000000000000145b806102ec57507f01ffc9a7000000000000000000000000000000000000000000000000000000006001600160e01b03198316146102ec565b8080610c9157506001600160a01b03821615155b15610d8b576000610ca1846106a2565b90506001600160a01b03831615801590610ccd5750826001600160a01b0316816001600160a01b031614155b8015610cff57506001600160a01b0380821660009081526005602090815260408083209387168352929052205460ff16155b15610d41576040517fa9fbf51f0000000000000000000000000000000000000000000000000000000081526001600160a01b03841660048201526024016103e2565b8115610d895783856001600160a01b0316826001600160a01b03167f8c5be1e5ebec7d5bd14f71427d1e84f3dd0314c0f7b2291e5b200ac8c7c3b92560405160405180910390a45b505b50506000908152600460205260409020805473ffffffffffffffffffffffffffffffffffffffff19166001600160a01b0392909216919091179055565b610dd3838383610ed3565b610480576001600160a01b038316610e0157604051637e27328960e01b8152600481018290526024016103e2565b6040517f177e802f0000000000000000000000000000000000000000000000000000000081526001600160a01b0383166004820152602481018290526044016103e2565b610e4f8383610f56565b61048060008484846109b5565b60606009805461030190611467565b6060610e76826106a2565b506000610e81610e5c565b90506000815111610ea15760405180602001604052806000815250610ecc565b80610eab84610fd4565b604051602001610ebc92919061162c565b6040516020818303038152906040525b9392505050565b60006001600160a01b03831615801590610bda5750826001600160a01b0316846001600160a01b03161480610f2d57506001600160a01b0380851660009081526005602090815260408083209387168352929052205460ff165b80610bda5750506000908152600460205260409020546001600160a01b03908116911614919050565b6001600160a01b038216610f8057604051633250574960e11b8152600060048201526024016103e2565b6000610f8e838360006106e8565b90506001600160a01b03811615610480576040517f73c6ac6e000000000000000000000000000000000000000000000000000000008152600060048201526024016103e2565b60606000610fe183611074565b600101905060008167ffffffffffffffff81111561100157611001611288565b6040519080825280601f01601f19166020018201604052801561102b576020820181803683370190505b5090508181016020015b600019017f3031323334353637383961626364656600000000000000000000000000000000600a86061a8153600a850494508461103557509392505050565b6000807a184f03e93ff9f4daa797ed6e38ed64bf6a1f01000000000000000083106110bd577a184f03e93ff9f4daa797ed6e38ed64bf6a1f010000000000000000830492506040015b6d04ee2d6d415b85acef810000000083106110e9576d04ee2d6d415b85acef8100000000830492506020015b662386f26fc10000831061110757662386f26fc10000830492506010015b6305f5e100831061111f576305f5e100830492506008015b612710831061113357612710830492506004015b60648310611145576064830492506002015b600a83106102ec5760010192915050565b6001600160e01b03198116811461066157600080fd5b60006020828403121561117e57600080fd5b8135610ecc81611156565b60005b838110156111a457818101518382015260200161118c565b50506000910152565b600081518084526111c5816020860160208601611189565b601f01601f19169290920160200192915050565b602081526000610ecc60208301846111ad565b6000602082840312156111fe57600080fd5b5035919050565b80356001600160a01b038116811461121c57600080fd5b919050565b6000806040838503121561123457600080fd5b61123d83611205565b946020939093013593505050565b60008060006060848603121561126057600080fd5b61126984611205565b925061127760208501611205565b929592945050506040919091013590565b634e487b7160e01b600052604160045260246000fd5b60008067ffffffffffffffff8411156112b9576112b9611288565b50604051601f19601f85018116603f0116810181811067ffffffffffffffff821117156112e8576112e8611288565b60405283815290508082840185101561130057600080fd5b83836020830137600060208583010152509392505050565b60006020828403121561132a57600080fd5b813567ffffffffffffffff81111561134157600080fd5b8201601f8101841361135257600080fd5b610bda8482356020840161129e565b60006020828403121561137357600080fd5b610ecc82611205565b6000806040838503121561138f57600080fd5b61139883611205565b9150602083013580151581146113ad57600080fd5b809150509250929050565b600080600080608085870312156113ce57600080fd5b6113d785611205565b93506113e560208601611205565b925060408501359150606085013567ffffffffffffffff81111561140857600080fd5b8501601f8101871361141957600080fd5b6114288782356020840161129e565b91505092959194509250565b6000806040838503121561144757600080fd5b61145083611205565b915061145e60208401611205565b90509250929050565b600181811c9082168061147b57607f821691505b60208210810361149b57634e487b7160e01b600052602260045260246000fd5b50919050565b601f82111561048057806000526020600020601f840160051c810160208510156114c85750805b601f840160051c820191505b81811015610ad757600081556001016114d4565b815167ffffffffffffffff81111561150257611502611288565b611516816115108454611467565b846114a1565b6020601f82116001811461154a57600083156115325750848201515b600019600385901b1c1916600184901b178455610ad7565b600084815260208120601f198516915b8281101561157a578785015182556020948501946001909201910161155a565b50848210156115985786840151600019600387901b60f8161c191681555b50505050600190811b01905550565b6000600182016115c757634e487b7160e01b600052601160045260246000fd5b5060010190565b6001600160a01b03851681526001600160a01b038416602082015282604082015260806060820152600061160560808301846111ad565b9695505050505050565b60006020828403121561162157600080fd5b8151610ecc81611156565b6000835161163e818460208801611189565b835190830190611652818360208801611189565b0194935050505056fea26469706673582212206d23fa29a25e21b04b0dd4c03adfc41602bd9f77fb1df050662aa4122c37303564736f6c634300081b0033",
  "linkReferences": {},
  "deployedLinkReferences": {}
}